{
  "contractName": "Lending",
  "abi": [
    {
      "anonymous": false,
      "inputs": [
        {
          "indexed": true,
          "internalType": "address",
          "name": "borrower",
          "type": "address"
        },
        {
          "indexed": true,
          "internalType": "address",
          "name": "lender",
          "type": "address"
        },
        {
          "indexed": false,
          "internalType": "uint256",
          "name": "amount",
          "type": "uint256"
        }
      ],
      "name": "Defaulted",
      "type": "event"
    },
    {
      "anonymous": false,
      "inputs": [
        {
          "indexed": true,
          "internalType": "address",
          "name": "borrower",
          "type": "address"
        },
        {
          "indexed": true,
          "internalType": "address",
          "name": "lender",
          "type": "address"
        },
        {
          "indexed": false,
          "internalType": "uint256",
          "name": "amount",
          "type": "uint256"
        }
      ],
      "name": "Funded",
      "type": "event"
    },
    {
      "anonymous": false,
      "inputs": [
        {
          "indexed": true,
          "internalType": "address",
          "name": "borrower",
          "type": "address"
        },
        {
          "indexed": false,
          "internalType": "uint256",
          "name": "amount",
          "type": "uint256"
        }
      ],
      "name": "LoanCancelled",
      "type": "event"
    },
    {
      "anonymous": false,
      "inputs": [
        {
          "indexed": true,
          "internalType": "address",
          "name": "borrower",
          "type": "address"
        },
        {
          "indexed": true,
          "internalType": "address",
          "name": "lender",
          "type": "address"
        },
        {
          "indexed": false,
          "internalType": "uint256",
          "name": "amount",
          "type": "uint256"
        }
      ],
      "name": "Repaid",
      "type": "event"
    },
    {
      "anonymous": false,
      "inputs": [
        {
          "indexed": true,
          "internalType": "address",
          "name": "borrower",
          "type": "address"
        },
        {
          "indexed": true,
          "internalType": "address",
          "name": "lender",
          "type": "address"
        },
        {
          "indexed": false,
          "internalType": "uint256",
          "name": "amount",
          "type": "uint256"
        }
      ],
      "name": "Requested",
      "type": "event"
    },
    {
      "inputs": [],
      "name": "Balance",
      "outputs": [
        {
          "internalType": "uint256",
          "name": "",
          "type": "uint256"
        }
      ],
      "stateMutability": "view",
      "type": "function"
    },
    {
      "inputs": [
        {
          "internalType": "address",
          "name": "",
          "type": "address"
        }
      ],
      "name": "lenderContributions",
      "outputs": [
        {
          "internalType": "uint256",
          "name": "",
          "type": "uint256"
        }
      ],
      "stateMutability": "view",
      "type": "function"
    },
    {
      "inputs": [
        {
          "internalType": "address",
          "name": "",
          "type": "address"
        }
      ],
      "name": "loans",
      "outputs": [
        {
          "internalType": "address",
          "name": "borrower",
          "type": "address"
        },
        {
          "internalType": "address",
          "name": "lender",
          "type": "address"
        },
        {
          "internalType": "uint256",
          "name": "requested_amt",
          "type": "uint256"
        },
        {
          "internalType": "uint256",
          "name": "repay_amt",
          "type": "uint256"
        },
        {
          "internalType": "uint256",
          "name": "interest_rate",
          "type": "uint256"
        },
        {
          "internalType": "enum Lending.State",
          "name": "state",
          "type": "uint8"
        },
        {
          "internalType": "uint256",
          "name": "date",
          "type": "uint256"
        },
        {
          "internalType": "uint256",
          "name": "collateral_amt",
          "type": "uint256"
        }
      ],
      "stateMutability": "view",
      "type": "function"
    },
    {
      "inputs": [],
      "name": "addFund",
      "outputs": [],
      "stateMutability": "payable",
      "type": "function"
    },
    {
      "inputs": [
        {
          "internalType": "uint256",
          "name": "amt",
          "type": "uint256"
        },
        {
          "internalType": "address",
          "name": "lender",
          "type": "address"
        }
      ],
      "name": "requestLoan",
      "outputs": [],
      "stateMutability": "payable",
      "type": "function"
    },
    {
      "inputs": [
        {
          "internalType": "address",
          "name": "borrower",
          "type": "address"
        }
      ],
      "name": "fundLoan",
      "outputs": [],
      "stateMutability": "payable",
      "type": "function"
    },
    {
      "inputs": [],
      "name": "repayLoan",
      "outputs": [],
      "stateMutability": "payable",
      "type": "function"
    },
    {
      "inputs": [],
      "name": "cancelLoan",
      "outputs": [],
      "stateMutability": "nonpayable",
      "type": "function"
    },
    {
      "inputs": [
        {
          "internalType": "address",
          "name": "borrower",
          "type": "address"
        }
      ],
      "name": "liquidateCollateral",
      "outputs": [],
      "stateMutability": "nonpayable",
      "type": "function"
    }
  ],
  "bytecode": "0x608060405234801561001057600080fd5b50611bf6806100206000396000f3fe6080604052600436106100865760003560e01c806383583fd81161005957806383583fd814610160578063a2f09dfa1461017c578063e48f6faf14610186578063f7d522d0146101a2578063f966ade7146101b957610086565b80630ef678871461008b5780631fea5a6b146100b65780635c8d40ac146100df57806373b4086b1461011c575b600080fd5b34801561009757600080fd5b506100a06101c3565b6040516100ad91906111a3565b60405180910390f35b3480156100c257600080fd5b506100dd60048036038101906100d89190611221565b6101c9565b005b3480156100eb57600080fd5b5061010660048036038101906101019190611221565b61044c565b60405161011391906111a3565b60405180910390f35b34801561012857600080fd5b50610143600480360381019061013e9190611221565b610464565b6040516101579897969594939291906112d4565b60405180910390f35b61017a6004803603810190610175919061137e565b6104f9565b005b610184610a36565b005b6101a0600480360381019061019b9190611221565b610aea565b005b3480156101ae57600080fd5b506101b7610d62565b005b6101c1610ee9565b005b60015481565b60008060008373ffffffffffffffffffffffffffffffffffffffff1673ffffffffffffffffffffffffffffffffffffffff16815260200190815260200160002090506001600481111561021f5761021e61125d565b5b8160050160009054906101000a900460ff1660048111156102435761024261125d565b5b14610283576040517f08c379a000000000000000000000000000000000000000000000000000000000815260040161027a9061141b565b60405180910390fd5b8060010160009054906101000a900473ffffffffffffffffffffffffffffffffffffffff1673ffffffffffffffffffffffffffffffffffffffff163373ffffffffffffffffffffffffffffffffffffffff1614610315576040517f08c379a000000000000000000000000000000000000000000000000000000000815260040161030c90611487565b60405180910390fd5b603c816006015461032691906114d6565b4211610367576040517f08c379a000000000000000000000000000000000000000000000000000000000815260040161035e90611556565b60405180910390fd5b60038160050160006101000a81548160ff0219169083600481111561038f5761038e61125d565b5b02179055503373ffffffffffffffffffffffffffffffffffffffff166108fc82600701549081150290604051600060405180830381858888f193505050501580156103de573d6000803e3d6000fd5b503373ffffffffffffffffffffffffffffffffffffffff168273ffffffffffffffffffffffffffffffffffffffff167f2d0d5acf72d117d31450b952bc84e4711e47f62b68b6161e87f076512e0c5391836007015460405161044091906111a3565b60405180910390a35050565b60026020528060005260406000206000915090505481565b60006020528060005260406000206000915090508060000160009054906101000a900473ffffffffffffffffffffffffffffffffffffffff16908060010160009054906101000a900473ffffffffffffffffffffffffffffffffffffffff16908060020154908060030154908060040154908060050160009054906101000a900460ff16908060060154908060070154905088565b6000821161053c576040517f08c379a0000000000000000000000000000000000000000000000000000000008152600401610533906115c2565b60405180910390fd5b600073ffffffffffffffffffffffffffffffffffffffff168173ffffffffffffffffffffffffffffffffffffffff16036105ab576040517f08c379a00000000000000000000000000000000000000000000000000000000081526004016105a29061162e565b60405180910390fd5b6005600260008373ffffffffffffffffffffffffffffffffffffffff1673ffffffffffffffffffffffffffffffffffffffff168152602001908152602001600020541161062d576040517f08c379a0000000000000000000000000000000000000000000000000000000008152600401610624906116c0565b60405180910390fd5b6064600a8361063c91906116e0565b6106469190611751565b341015610688576040517f08c379a000000000000000000000000000000000000000000000000000000000815260040161067f906117f4565b60405180910390fd5b60008060003373ffffffffffffffffffffffffffffffffffffffff1673ffffffffffffffffffffffffffffffffffffffff1681526020019081526020016000209050600360048111156106de576106dd61125d565b5b8160050160009054906101000a900460ff1660048111156107025761070161125d565b5b148061074357506002600481111561071d5761071c61125d565b5b8160050160009054906101000a900460ff1660048111156107415761074061125d565b5b145b80610782575060048081111561075c5761075b61125d565b5b8160050160009054906101000a900460ff1660048111156107805761077f61125d565b5b145b806107d457506000600481111561079c5761079b61125d565b5b60048111156107ae576107ad61125d565b5b8160050160009054906101000a900460ff1660048111156107d2576107d161125d565b5b145b610813576040517f08c379a000000000000000000000000000000000000000000000000000000000815260040161080a90611886565b60405180910390fd5b600061081e84611158565b90506040518061010001604052803373ffffffffffffffffffffffffffffffffffffffff1681526020018473ffffffffffffffffffffffffffffffffffffffff168152602001858152602001828152602001600681526020016000600481111561088b5761088a61125d565b5b8152602001428152602001348152506000803373ffffffffffffffffffffffffffffffffffffffff1673ffffffffffffffffffffffffffffffffffffffff16815260200190815260200160002060008201518160000160006101000a81548173ffffffffffffffffffffffffffffffffffffffff021916908373ffffffffffffffffffffffffffffffffffffffff16021790555060208201518160010160006101000a81548173ffffffffffffffffffffffffffffffffffffffff021916908373ffffffffffffffffffffffffffffffffffffffff16021790555060408201518160020155606082015181600301556080820151816004015560a08201518160050160006101000a81548160ff021916908360048111156109af576109ae61125d565b5b021790555060c0820151816006015560e082015181600701559050508273ffffffffffffffffffffffffffffffffffffffff163373ffffffffffffffffffffffffffffffffffffffff167f13153189bc7746f17cef22fff0768390d6bddc866e67e3320c1835bb608dfd3586604051610a2891906111a3565b60405180910390a350505050565b60003411610a79576040517f08c379a0000000000000000000000000000000000000000000000000000000008152600401610a70906118f2565b60405180910390fd5b3460016000828254610a8b91906114d6565b9250508190555034600260003373ffffffffffffffffffffffffffffffffffffffff1673ffffffffffffffffffffffffffffffffffffffff1681526020019081526020016000206000828254610ae191906114d6565b92505081905550565b60008060008373ffffffffffffffffffffffffffffffffffffffff1673ffffffffffffffffffffffffffffffffffffffff168152602001908152602001600020905060006004811115610b4057610b3f61125d565b5b8160050160009054906101000a900460ff166004811115610b6457610b6361125d565b5b14610ba4576040517f08c379a0000000000000000000000000000000000000000000000000000000008152600401610b9b9061195e565b60405180910390fd5b8060010160009054906101000a900473ffffffffffffffffffffffffffffffffffffffff1673ffffffffffffffffffffffffffffffffffffffff163373ffffffffffffffffffffffffffffffffffffffff1614610c36576040517f08c379a0000000000000000000000000000000000000000000000000000000008152600401610c2d906119f0565b60405180910390fd5b80600201543414610c7c576040517f08c379a0000000000000000000000000000000000000000000000000000000008152600401610c7390611a5c565b60405180910390fd5b8173ffffffffffffffffffffffffffffffffffffffff166108fc349081150290604051600060405180830381858888f19350505050158015610cc2573d6000803e3d6000fd5b5060018160050160006101000a81548160ff02191690836004811115610ceb57610cea61125d565b5b02179055504281600601819055503373ffffffffffffffffffffffffffffffffffffffff168273ffffffffffffffffffffffffffffffffffffffff167f3b5083eec1a1116c56de5d6841cff8efc6a0aec9850e836ec509d6ce024ea56134604051610d5691906111a3565b60405180910390a35050565b60008060003373ffffffffffffffffffffffffffffffffffffffff1673ffffffffffffffffffffffffffffffffffffffff168152602001908152602001600020905060006004811115610db857610db761125d565b5b8160050160009054906101000a900460ff166004811115610ddc57610ddb61125d565b5b14610e1c576040517f08c379a0000000000000000000000000000000000000000000000000000000008152600401610e1390611ac8565b60405180910390fd5b60048160050160006101000a81548160ff02191690836004811115610e4457610e4361125d565b5b02179055503373ffffffffffffffffffffffffffffffffffffffff166108fc82600701549081150290604051600060405180830381858888f19350505050158015610e93573d6000803e3d6000fd5b503373ffffffffffffffffffffffffffffffffffffffff167f2c5bd1383d9ae06e59cb5d048733ea979ec14bb1ff928b9f0c25364308e12f148260020154604051610ede91906111a3565b60405180910390a250565b60008060003373ffffffffffffffffffffffffffffffffffffffff1673ffffffffffffffffffffffffffffffffffffffff168152602001908152602001600020905060016004811115610f3f57610f3e61125d565b5b8160050160009054906101000a900460ff166004811115610f6357610f6261125d565b5b14610fa3576040517f08c379a0000000000000000000000000000000000000000000000000000000008152600401610f9a90611b34565b60405180910390fd5b80600301543414610fe9576040517f08c379a0000000000000000000000000000000000000000000000000000000008152600401610fe090611ba0565b60405180910390fd5b8060010160009054906101000a900473ffffffffffffffffffffffffffffffffffffffff1673ffffffffffffffffffffffffffffffffffffffff166108fc349081150290604051600060405180830381858888f19350505050158015611053573d6000803e3d6000fd5b5060028160050160006101000a81548160ff0219169083600481111561107c5761107b61125d565b5b02179055503373ffffffffffffffffffffffffffffffffffffffff166108fc82600701549081150290604051600060405180830381858888f193505050501580156110cb573d6000803e3d6000fd5b508060010160009054906101000a900473ffffffffffffffffffffffffffffffffffffffff1673ffffffffffffffffffffffffffffffffffffffff163373ffffffffffffffffffffffffffffffffffffffff167f0a3fbbea70e93f2daafa3102f5c9a1b8315e6d7a1e43e4bc020bc1162327470a3460405161114d91906111a3565b60405180910390a350565b600080606460068461116a91906116e0565b6111749190611751565b9050808361118291906114d6565b915050919050565b6000819050919050565b61119d8161118a565b82525050565b60006020820190506111b86000830184611194565b92915050565b600080fd5b600073ffffffffffffffffffffffffffffffffffffffff82169050919050565b60006111ee826111c3565b9050919050565b6111fe816111e3565b811461120957600080fd5b50565b60008135905061121b816111f5565b92915050565b600060208284031215611237576112366111be565b5b60006112458482850161120c565b91505092915050565b611257816111e3565b82525050565b7f4e487b7100000000000000000000000000000000000000000000000000000000600052602160045260246000fd5b6005811061129d5761129c61125d565b5b50565b60008190506112ae8261128c565b919050565b60006112be826112a0565b9050919050565b6112ce816112b3565b82525050565b6000610100820190506112ea600083018b61124e565b6112f7602083018a61124e565b6113046040830189611194565b6113116060830188611194565b61131e6080830187611194565b61132b60a08301866112c5565b61133860c0830185611194565b61134560e0830184611194565b9998505050505050505050565b61135b8161118a565b811461136657600080fd5b50565b60008135905061137881611352565b92915050565b60008060408385031215611395576113946111be565b5b60006113a385828601611369565b92505060206113b48582860161120c565b9150509250929050565b600082825260208201905092915050565b7f4c6f616e206d75737420626520696e2046756e64656420737461746500000000600082015250565b6000611405601c836113be565b9150611410826113cf565b602082019050919050565b60006020820190508181036000830152611434816113f8565b9050919050565b7f4f6e6c7920746865206c656e6465722063616e206c6971756964617465000000600082015250565b6000611471601d836113be565b915061147c8261143b565b602082019050919050565b600060208201905081810360008301526114a081611464565b9050919050565b7f4e487b7100000000000000000000000000000000000000000000000000000000600052601160045260246000fd5b60006114e18261118a565b91506114ec8361118a565b9250828201905080821115611504576115036114a7565b5b92915050565b7f4c6f616e206e6f74206f76657264756500000000000000000000000000000000600082015250565b60006115406010836113be565b915061154b8261150a565b602082019050919050565b6000602082019050818103600083015261156f81611533565b9050919050565b7f4c6f616e20616d6f756e74206d757374206265203e2030000000000000000000600082015250565b60006115ac6017836113be565b91506115b782611576565b602082019050919050565b600060208201905081810360008301526115db8161159f565b9050919050565b7f496e76616c6964206c656e646572206164647265737300000000000000000000600082015250565b60006116186016836113be565b9150611623826115e2565b602082019050919050565b600060208201905081810360008301526116478161160b565b9050919050565b7f4c656e64657220686173206e6f7420636f6e74726962757465642061746c656160008201527f737420352045544820746f20706f6f6c00000000000000000000000000000000602082015250565b60006116aa6030836113be565b91506116b58261164e565b604082019050919050565b600060208201905081810360008301526116d98161169d565b9050919050565b60006116eb8261118a565b91506116f68361118a565b92508282026117048161118a565b9150828204841483151761171b5761171a6114a7565b5b5092915050565b7f4e487b7100000000000000000000000000000000000000000000000000000000600052601260045260246000fd5b600061175c8261118a565b91506117678361118a565b92508261177757611776611722565b5b828204905092915050565b7f436f6c6c61746572616c206d757374206265203e3d20313025206f66206c6f6160008201527f6e00000000000000000000000000000000000000000000000000000000000000602082015250565b60006117de6021836113be565b91506117e982611782565b604082019050919050565b6000602082019050818103600083015261180d816117d1565b9050919050565b7f5265706179206f722063616e63656c206578697374696e67206c6f616e20666960008201527f7273740000000000000000000000000000000000000000000000000000000000602082015250565b60006118706023836113be565b915061187b82611814565b604082019050919050565b6000602082019050818103600083015261189f81611863565b9050919050565b7f4d7573742073656e6420736f6d65204554480000000000000000000000000000600082015250565b60006118dc6012836113be565b91506118e7826118a6565b602082019050919050565b6000602082019050818103600083015261190b816118cf565b9050919050565b7f4c6f616e206e6f7420696e207265717565737465642073746174650000000000600082015250565b6000611948601b836113be565b915061195382611912565b602082019050919050565b600060208201905081810360008301526119778161193b565b9050919050565b7f4f6e6c79207468652073656c6563746564206c656e6465722063616e2066756e60008201527f642074686973206c6f616e000000000000000000000000000000000000000000602082015250565b60006119da602b836113be565b91506119e58261197e565b604082019050919050565b60006020820190508181036000830152611a09816119cd565b9050919050565b7f496e636f72726563742045544820616d6f756e742073656e7400000000000000600082015250565b6000611a466019836113be565b9150611a5182611a10565b602082019050919050565b60006020820190508181036000830152611a7581611a39565b9050919050565b7f43616e206f6e6c792063616e63656c20726571756573746564206c6f616e7300600082015250565b6000611ab2601f836113be565b9150611abd82611a7c565b602082019050919050565b60006020820190508181036000830152611ae181611aa5565b9050919050565b7f4c6f616e206e6f7420696e206163746976652073746174650000000000000000600082015250565b6000611b1e6018836113be565b9150611b2982611ae8565b602082019050919050565b60006020820190508181036000830152611b4d81611b11565b9050919050565b7f496e636f727265637420726570617920616d6f756e7400000000000000000000600082015250565b6000611b8a6016836113be565b9150611b9582611b54565b602082019050919050565b60006020820190508181036000830152611bb981611b7d565b905091905056fea26469706673582212202fa85a7d2b0025511546ee644e301b1e02aec0dd1b2df31629839764b8e3313a64736f6c63430008130033",
  "immutableReferences": {},
  "source": "// SPDX-License-Identifier: MIT\r\npragma solidity ^0.8.19;\r\n\r\ncontract Lending {\r\n    enum State {Requested,Funded,Repaid,Defaulted,Cancelled}\r\n\r\n    struct Loan {\r\n        address borrower;\r\n        address lender;\r\n        uint256 requested_amt;\r\n        uint256 repay_amt;\r\n        uint256 interest_rate;\r\n        State state;\r\n        uint256 date;\r\n        uint256 collateral_amt;\r\n    }\r\n\r\n    mapping(address => Loan) public loans;\r\n    uint256 public Balance;\r\n    mapping(address => uint256) public lenderContributions;\r\n\r\n    event Requested(address indexed borrower,address indexed lender,uint256 amount);\r\n    event Funded(address indexed borrower,address indexed lender,uint256 amount);\r\n    event Repaid(address indexed borrower,address indexed lender,uint256 amount);\r\n    event LoanCancelled(address indexed borrower, uint256 amount);\r\n    event Defaulted(address indexed borrower,address indexed lender,uint256 amount);\r\n\r\n    function addFund() public payable {\r\n        require(msg.value > 0, \"Must send some ETH\");\r\n        Balance += msg.value;\r\n        lenderContributions[msg.sender] += msg.value;\r\n    }\r\n\r\n    function requestLoan(uint256 amt, address lender) public payable {\r\n        require(amt > 0, \"Loan amount must be > 0\");\r\n        require(lender != address(0), \"Invalid lender address\");\r\n        require(\r\n            lenderContributions[lender] > 5,\r\n            \"Lender has not contributed atleast 5 ETH to pool\"\r\n        );\r\n        require(\r\n            msg.value >= (amt * 10) / 100,\r\n            \"Collateral must be >= 10% of loan\"\r\n        );\r\n\r\n        Loan storage existingLoan = loans[msg.sender];\r\n        require(\r\n            existingLoan.state == State.Defaulted || existingLoan.state == State.Repaid || existingLoan.state == State.Cancelled || existingLoan.state == State(0),\r\n            \"Repay or cancel existing loan first\"\r\n        );\r\n\r\n        uint256 repay_amt = RepayAmount(amt);\r\n\r\n        loans[msg.sender] = Loan({\r\n            borrower: msg.sender,\r\n            lender: lender,\r\n            requested_amt: amt,\r\n            repay_amt: repay_amt,\r\n            interest_rate: 6,\r\n            state: State.Requested,\r\n            date: block.timestamp,\r\n            collateral_amt: msg.value\r\n        });\r\n\r\n        emit Requested(msg.sender, lender, amt);\r\n    }\r\n\r\n    function RepayAmount(uint256 amt) internal pure returns (uint256) {\r\n        uint256 interest = (amt * 6) / 100;\r\n        return amt + interest;\r\n    }\r\n\r\n    function fundLoan(address borrower) external payable {\r\n        Loan storage loan = loans[borrower];\r\n        require(loan.state == State.Requested, \"Loan not in requested state\");\r\n        require(\r\n            msg.sender == loan.lender,\r\n            \"Only the selected lender can fund this loan\"\r\n        );\r\n        require(msg.value == loan.requested_amt, \"Incorrect ETH amount sent\");\r\n\r\n        payable(borrower).transfer(msg.value);\r\n        loan.state = State.Funded;\r\n        loan.date = block.timestamp;\r\n\r\n        emit Funded(borrower, msg.sender, msg.value);\r\n    }\r\n\r\n    function repayLoan() public payable {\r\n        Loan storage loan = loans[msg.sender];\r\n        require(loan.state == State.Funded, \"Loan not in active state\");\r\n        require(msg.value == loan.repay_amt, \"Incorrect repay amount\");\r\n\r\n        payable(loan.lender).transfer(msg.value);\r\n        loan.state = State.Repaid;\r\n        payable(msg.sender).transfer(loan.collateral_amt);\r\n\r\n        emit Repaid(msg.sender, loan.lender, msg.value);\r\n    }\r\n\r\n    // Cancel a loan (only by borrower)\r\n    function cancelLoan() public {\r\n        Loan storage loan = loans[msg.sender];\r\n        require(loan.state == State.Requested,\"Can only cancel requested loans\");\r\n\r\n        loan.state = State.Cancelled;\r\n        payable(msg.sender).transfer(loan.collateral_amt);\r\n\r\n        emit LoanCancelled(msg.sender, loan.requested_amt);\r\n    }\r\n\r\n    // Liquidate collateral (only by lender)\r\n    function liquidateCollateral(address borrower) public {\r\n        Loan storage loan = loans[borrower];\r\n\r\n        require(loan.state == State.Funded, \"Loan must be in Funded state\");\r\n        require(msg.sender == loan.lender, \"Only the lender can liquidate\");\r\n        require(block.timestamp > loan.date + 1 minutes, \"Loan not overdue\");\r\n\r\n        loan.state = State.Defaulted;\r\n        payable(msg.sender).transfer(loan.collateral_amt);\r\n\r\n        emit Defaulted(borrower, msg.sender, loan.collateral_amt);\r\n    }\r\n}\r\n",
  "sourcePath": "C:\\Ayush\\BlockChain_Solidity\\Lending_App\\contracts\\Lending.sol",
  "compiler": {
    "name": "solc",
    "version": "0.8.19+commit.7dd6d404.Emscripten.clang"
  },
  "schemaVersion": "3.4.16",
  "updatedAt": "2025-04-23T17:05:06.497Z",
  "devdoc": {
    "kind": "dev",
    "methods": {},
    "version": 1
  },
  "userdoc": {
    "kind": "user",
    "methods": {},
    "version": 1
  }
}